:100000000C942A000C9447000C9447000C94470071
:100010000C9447000C9447000C9447000C94470044
:100020000C9447000C9447000C9447000C94470034
:100030000C9447000C9447000C9447000C94470024
:100040000C9447000C9447000C9447000C94470014
:100050000C94470011241FBECFE5D4E0DEBFCDBF16
:1000600010E0A0E6B0E0E6EAF4E002C005900D92F0
:10007000AC3DB107D9F722E0ACEDB0E001C01D9274
:10008000A03DB207E1F70E94F5010C9451020C94D7
:100090000000EF92FF920F931F93CF93DF93C82F2F
:1000A000D92F7B018A0180EA0E9483018D2F0E9453
:1000B000CA018C2F0E94CA01C0E0D0E007C0F7013E
:1000C000EC0FFD1F80810E94CA012196C017D10745
:1000D000B0F30E94EF01DF91CF911F910F91FF903C
:1000E000EF900895CF92DF92EF92FF920F931F93BC
:1000F000CF93DF93C82FD92F7B016A0180EA0E943A
:1001000083018D2F0E94CA018C2F0E94CA0181EAAF
:100110000E94A601C0E0D0E008C087010C0F1D1F9F
:100120000E94E101F80180832196B60161507109B6
:10013000C617D70790F3E701C60FD71F0E94E80143
:1001400088830E94EF01DF91CF911F910F91FF9063
:10015000EF90DF90CF9008959C01260F371F213438
:10016000310538F060E470E09B01281B390BC901B0
:100170000895CB0108954F925F926F927F928F9274
:100180009F92AF92BF92CF92DF92EF92FF920F9326
:100190001F93CF93DF935C01CB014A0179012B01BF
:1001A000420E531E0024440C551C001C440C551CCC
:1001B000001C452C502C2FEF421A520A00E010E090
:1001C000C12CD12C28C03501002476946794079463
:1001D000769467940794762C602C682A792AB70164
:1001E0000E94AC00EC01B4016C0D7D1DAC01C3019B
:1001F0000E9449008FEFA81AB80AEC1AFD0ACC0E2B
:10020000DD1E87E893E10197F1F700C000000F5F62
:100210001F4F80E090E004151505A8F2DF91CF9103
:100220001F910F91FF90EF90DF90CF90BF90AF9014
:100230009F908F907F906F905F904F9008954F9216
:100240005F926F927F928F929F92AF92BF92CF9266
:10025000DF92EF92FF920F931F93CF93DF935C0196
:10026000CB014A0179012B01420E531E0024440C9C
:10027000551C001C440C551C001C452C502C2FEF09
:10028000421A520A00E010E0C12CD12C28C03501DE
:100290000024769467940794769467940794762C58
:1002A000602C682A792AB7010E94AC00EC01B401E5
:1002B0006C0D7D1DAC01C3010E9472008FEFA81A66
:1002C000B80AEC1AFD0ACC0EDD1E87E893E101970F
:1002D000F1F700C000000F5F1F4F80E090E00415B1
:1002E0001505A8F2DF91CF911F910F91FF90EF902C
:1002F000DF90CF90BF90AF909F908F907F906F9046
:100300005F904F90089594EA96BF06B607FEFDCF22
:1003100091B1987F983089F483B984E886BF06B696
:1003200007FEFDCF81B1887F90E08831910541F0D3
:10033000809749F482E090E0089580E090E008958D
:1003400081E090E0089583E090E0089594EA96BFFC
:1003500006B607FEFDCF91B1987F903191F483B935
:1003600084E886BF06B607FEFDCF81B1887F90E0A6
:100370008034910549F08834910549F482E090E099
:10038000089580E090E0089581E090E0089583E092
:1003900090E0089583B984E886BF06B607FEFDCFD6
:1003A00081B1887F90E08832910529F0C09731F4BF
:1003B00081E090E0089580E090E0089582E090E090
:1003C000089584EC86BF06B607FEFDCF83B108957D
:1003D00084E886BF06B607FEFDCF83B1089584E9A1
:1003E00086BF06B604FCFDCF0895E0E6F0E001907C
:1003F0000020E9F731979F012056304040E650E059
:1004000062E070E082E090E00E94BB0063E370E095
:1004100080E090E00E942B022FEF89E698E12150C6
:1004200080409040E1F700C00000E0E6F0E001907D
:100430000020E9F731979F01205630404CED50E005
:1004400062E070E082E090E00E941F018CED90E09D
:100450000E943E02E1CF2AB128692AB920B5266858
:1004600020BD69B9BB2797FDBA95A92F982F872F73
:1004700080BD08955D9BFECF8CB908950F931F93A7
:10048000CF938C01C0E003C00E943A02CF5FF80115
:10049000EC0FF11D80818111F7CFCF911F910F914A
:0604A0000895F894FFCF5F
:1004A6005468652053434C20696E707574206973D7
:1004B600207573656420746F20706F736974697634
:1004C60065206564676520636C6F636B2064617487
:1004D6006120696E746F20656163682045455052DE
:1004E6004F4D2064657669636520616E64206E6594
:1004F600676174697665206564676520636C6F6300
:100506006B2064617461206F7574206F662065616D
:0C051600636820646576696365200A0054
:00000001FF
